{
    "contractName": "DazedDucks",
    "abi": [
        {
            "inputs": [
                {
                    "internalType": "string",
                    "name": "name",
                    "type": "string"
                },
                {
                    "internalType": "string",
                    "name": "symbol",
                    "type": "string"
                },
                {
                    "internalType": "uint256",
                    "name": "maxNFTSupply",
                    "type": "uint256"
                },
                {
                    "internalType": "uint256",
                    "name": "mintTimeStamp",
                    "type": "uint256"
                }
            ],
            "stateMutability": "nonpayable",
            "type": "constructor"
        },
        {
            "anonymous": false,
            "inputs": [
                {
                    "indexed": true,
                    "internalType": "address",
                    "name": "owner",
                    "type": "address"
                },
                {
                    "indexed": true,
                    "internalType": "address",
                    "name": "approved",
                    "type": "address"
                },
                {
                    "indexed": true,
                    "internalType": "uint256",
                    "name": "tokenId",
                    "type": "uint256"
                }
            ],
            "name": "Approval",
            "type": "event"
        },
        {
            "anonymous": false,
            "inputs": [
                {
                    "indexed": true,
                    "internalType": "address",
                    "name": "owner",
                    "type": "address"
                },
                {
                    "indexed": true,
                    "internalType": "address",
                    "name": "operator",
                    "type": "address"
                },
                {
                    "indexed": false,
                    "internalType": "bool",
                    "name": "approved",
                    "type": "bool"
                }
            ],
            "name": "ApprovalForAll",
            "type": "event"
        },
        {
            "anonymous": false,
            "inputs": [
                {
                    "indexed": false,
                    "internalType": "uint256",
                    "name": "id",
                    "type": "uint256"
                },
                {
                    "indexed": false,
                    "internalType": "string",
                    "name": "message",
                    "type": "string"
                }
            ],
            "name": "Minted",
            "type": "event"
        },
        {
            "anonymous": false,
            "inputs": [
                {
                    "indexed": true,
                    "internalType": "address",
                    "name": "previousOwner",
                    "type": "address"
                },
                {
                    "indexed": true,
                    "internalType": "address",
                    "name": "newOwner",
                    "type": "address"
                }
            ],
            "name": "OwnershipTransferred",
            "type": "event"
        },
        {
            "anonymous": false,
            "inputs": [
                {
                    "indexed": true,
                    "internalType": "address",
                    "name": "from",
                    "type": "address"
                },
                {
                    "indexed": true,
                    "internalType": "address",
                    "name": "to",
                    "type": "address"
                },
                {
                    "indexed": true,
                    "internalType": "uint256",
                    "name": "tokenId",
                    "type": "uint256"
                }
            ],
            "name": "Transfer",
            "type": "event"
        },
        {
            "inputs": [],
            "name": "MAX_NFT_SUPPLY",
            "outputs": [
                {
                    "internalType": "uint256",
                    "name": "",
                    "type": "uint256"
                }
            ],
            "stateMutability": "view",
            "type": "function",
            "constant": true
        },
        {
            "inputs": [],
            "name": "MINT_TIMESTAMP",
            "outputs": [
                {
                    "internalType": "uint256",
                    "name": "",
                    "type": "uint256"
                }
            ],
            "stateMutability": "view",
            "type": "function",
            "constant": true
        },
        {
            "inputs": [],
            "name": "NFTPrice",
            "outputs": [
                {
                    "internalType": "uint256",
                    "name": "",
                    "type": "uint256"
                }
            ],
            "stateMutability": "view",
            "type": "function",
            "constant": true
        },
        {
            "inputs": [
                {
                    "internalType": "address",
                    "name": "to",
                    "type": "address"
                },
                {
                    "internalType": "uint256",
                    "name": "tokenId",
                    "type": "uint256"
                }
            ],
            "name": "approve",
            "outputs": [],
            "stateMutability": "nonpayable",
            "type": "function"
        },
        {
            "inputs": [
                {
                    "internalType": "address",
                    "name": "owner",
                    "type": "address"
                }
            ],
            "name": "balanceOf",
            "outputs": [
                {
                    "internalType": "uint256",
                    "name": "",
                    "type": "uint256"
                }
            ],
            "stateMutability": "view",
            "type": "function",
            "constant": true
        },
        {
            "inputs": [],
            "name": "baseURI",
            "outputs": [
                {
                    "internalType": "string",
                    "name": "",
                    "type": "string"
                }
            ],
            "stateMutability": "view",
            "type": "function",
            "constant": true
        },
        {
            "inputs": [
                {
                    "internalType": "uint256",
                    "name": "tokenId",
                    "type": "uint256"
                }
            ],
            "name": "getApproved",
            "outputs": [
                {
                    "internalType": "address",
                    "name": "",
                    "type": "address"
                }
            ],
            "stateMutability": "view",
            "type": "function",
            "constant": true
        },
        {
            "inputs": [
                {
                    "internalType": "address",
                    "name": "owner",
                    "type": "address"
                },
                {
                    "internalType": "address",
                    "name": "operator",
                    "type": "address"
                }
            ],
            "name": "isApprovedForAll",
            "outputs": [
                {
                    "internalType": "bool",
                    "name": "",
                    "type": "bool"
                }
            ],
            "stateMutability": "view",
            "type": "function",
            "constant": true
        },
        {
            "inputs": [],
            "name": "mintIndex",
            "outputs": [
                {
                    "internalType": "uint256",
                    "name": "",
                    "type": "uint256"
                }
            ],
            "stateMutability": "view",
            "type": "function",
            "constant": true
        },
        {
            "inputs": [],
            "name": "name",
            "outputs": [
                {
                    "internalType": "string",
                    "name": "",
                    "type": "string"
                }
            ],
            "stateMutability": "view",
            "type": "function",
            "constant": true
        },
        {
            "inputs": [],
            "name": "owner",
            "outputs": [
                {
                    "internalType": "address",
                    "name": "",
                    "type": "address"
                }
            ],
            "stateMutability": "view",
            "type": "function",
            "constant": true
        },
        {
            "inputs": [
                {
                    "internalType": "uint256",
                    "name": "tokenId",
                    "type": "uint256"
                }
            ],
            "name": "ownerOf",
            "outputs": [
                {
                    "internalType": "address",
                    "name": "",
                    "type": "address"
                }
            ],
            "stateMutability": "view",
            "type": "function",
            "constant": true
        },
        {
            "inputs": [],
            "name": "renounceOwnership",
            "outputs": [],
            "stateMutability": "nonpayable",
            "type": "function"
        },
        {
            "inputs": [
                {
                    "internalType": "address",
                    "name": "from",
                    "type": "address"
                },
                {
                    "internalType": "address",
                    "name": "to",
                    "type": "address"
                },
                {
                    "internalType": "uint256",
                    "name": "tokenId",
                    "type": "uint256"
                }
            ],
            "name": "safeTransferFrom",
            "outputs": [],
            "stateMutability": "nonpayable",
            "type": "function"
        },
        {
            "inputs": [
                {
                    "internalType": "address",
                    "name": "from",
                    "type": "address"
                },
                {
                    "internalType": "address",
                    "name": "to",
                    "type": "address"
                },
                {
                    "internalType": "uint256",
                    "name": "tokenId",
                    "type": "uint256"
                },
                {
                    "internalType": "bytes",
                    "name": "_data",
                    "type": "bytes"
                }
            ],
            "name": "safeTransferFrom",
            "outputs": [],
            "stateMutability": "nonpayable",
            "type": "function"
        },
        {
            "inputs": [],
            "name": "saleHasStarted",
            "outputs": [
                {
                    "internalType": "bool",
                    "name": "",
                    "type": "bool"
                }
            ],
            "stateMutability": "view",
            "type": "function",
            "constant": true
        },
        {
            "inputs": [
                {
                    "internalType": "address",
                    "name": "operator",
                    "type": "address"
                },
                {
                    "internalType": "bool",
                    "name": "approved",
                    "type": "bool"
                }
            ],
            "name": "setApprovalForAll",
            "outputs": [],
            "stateMutability": "nonpayable",
            "type": "function"
        },
        {
            "inputs": [],
            "name": "startingIndex",
            "outputs": [
                {
                    "internalType": "uint256",
                    "name": "",
                    "type": "uint256"
                }
            ],
            "stateMutability": "view",
            "type": "function",
            "constant": true
        },
        {
            "inputs": [],
            "name": "startingIndexBlock",
            "outputs": [
                {
                    "internalType": "uint256",
                    "name": "",
                    "type": "uint256"
                }
            ],
            "stateMutability": "view",
            "type": "function",
            "constant": true
        },
        {
            "inputs": [
                {
                    "internalType": "bytes4",
                    "name": "interfaceId",
                    "type": "bytes4"
                }
            ],
            "name": "supportsInterface",
            "outputs": [
                {
                    "internalType": "bool",
                    "name": "",
                    "type": "bool"
                }
            ],
            "stateMutability": "view",
            "type": "function",
            "constant": true
        },
        {
            "inputs": [],
            "name": "symbol",
            "outputs": [
                {
                    "internalType": "string",
                    "name": "",
                    "type": "string"
                }
            ],
            "stateMutability": "view",
            "type": "function",
            "constant": true
        },
        {
            "inputs": [
                {
                    "internalType": "uint256",
                    "name": "tokenId",
                    "type": "uint256"
                }
            ],
            "name": "tokenURI",
            "outputs": [
                {
                    "internalType": "string",
                    "name": "",
                    "type": "string"
                }
            ],
            "stateMutability": "view",
            "type": "function",
            "constant": true
        },
        {
            "inputs": [
                {
                    "internalType": "address",
                    "name": "from",
                    "type": "address"
                },
                {
                    "internalType": "address",
                    "name": "to",
                    "type": "address"
                },
                {
                    "internalType": "uint256",
                    "name": "tokenId",
                    "type": "uint256"
                }
            ],
            "name": "transferFrom",
            "outputs": [],
            "stateMutability": "nonpayable",
            "type": "function"
        },
        {
            "inputs": [
                {
                    "internalType": "address",
                    "name": "newOwner",
                    "type": "address"
                }
            ],
            "name": "transferOwnership",
            "outputs": [],
            "stateMutability": "nonpayable",
            "type": "function"
        },
        {
            "inputs": [],
            "name": "mintToken",
            "outputs": [],
            "stateMutability": "payable",
            "type": "function",
            "payable": true
        },
        {
            "inputs": [
                {
                    "internalType": "string",
                    "name": "newBaseURI",
                    "type": "string"
                }
            ],
            "name": "setBaseURI",
            "outputs": [],
            "stateMutability": "nonpayable",
            "type": "function"
        },
        {
            "inputs": [],
            "name": "baseTokenURI",
            "outputs": [
                {
                    "internalType": "string",
                    "name": "",
                    "type": "string"
                }
            ],
            "stateMutability": "view",
            "type": "function",
            "constant": true
        },
        {
            "inputs": [],
            "name": "withdraw",
            "outputs": [],
            "stateMutability": "payable",
            "type": "function",
            "payable": true
        },
        {
            "inputs": [
                {
                    "internalType": "uint256",
                    "name": "mintTimeStamp",
                    "type": "uint256"
                }
            ],
            "name": "setRevealTimestamp",
            "outputs": [],
            "stateMutability": "nonpayable",
            "type": "function"
        },
        {
            "inputs": [],
            "name": "toggleSaleState",
            "outputs": [],
            "stateMutability": "nonpayable",
            "type": "function"
        },
        {
            "inputs": [],
            "name": "getMintIndex",
            "outputs": [
                {
                    "internalType": "uint256",
                    "name": "",
                    "type": "uint256"
                }
            ],
            "stateMutability": "view",
            "type": "function",
            "constant": true
        },
        {
            "inputs": [],
            "name": "getMaxNFTSupply",
            "outputs": [
                {
                    "internalType": "uint256",
                    "name": "",
                    "type": "uint256"
                }
            ],
            "stateMutability": "view",
            "type": "function",
            "constant": true
        }
    ],
    "bytecode": "0x60806040526001600960006101000a81548160ff02191690831515021790555060405180606001604052806035815260200162003e5460359139600a908051906020019062000050929190620001c5565b506001600b553480156200006357600080fd5b5060405162003e8938038062003e8983398181016040528101906200008991906200044d565b83838160009080519060200190620000a3929190620001c5565b508060019080519060200190620000bc929190620001c5565b505050620000df620000d3620000f760201b60201c565b620000ff60201b60201c565b81600781905550806008819055505050505062000562565b600033905090565b6000600660009054906101000a900473ffffffffffffffffffffffffffffffffffffffff16905081600660006101000a81548173ffffffffffffffffffffffffffffffffffffffff021916908373ffffffffffffffffffffffffffffffffffffffff1602179055508173ffffffffffffffffffffffffffffffffffffffff168173ffffffffffffffffffffffffffffffffffffffff167f8be0079c531659141344cd1fd0a4f28419497f9722a3daafe3b4186f6b6457e060405160405180910390a35050565b828054620001d3906200052c565b90600052602060002090601f016020900481019282620001f7576000855562000243565b82601f106200021257805160ff191683800117855562000243565b8280016001018555821562000243579182015b828111156200024257825182559160200191906001019062000225565b5b50905062000252919062000256565b5090565b5b808211156200027157600081600090555060010162000257565b5090565b6000604051905090565b600080fd5b600080fd5b600080fd5b600080fd5b6000601f19601f8301169050919050565b7f4e487b7100000000000000000000000000000000000000000000000000000000600052604160045260246000fd5b620002de8262000293565b810181811067ffffffffffffffff821117156200030057620002ff620002a4565b5b80604052505050565b60006200031562000275565b9050620003238282620002d3565b919050565b600067ffffffffffffffff821115620003465762000345620002a4565b5b620003518262000293565b9050602081019050919050565b60005b838110156200037e57808201518184015260208101905062000361565b838111156200038e576000848401525b50505050565b6000620003ab620003a58462000328565b62000309565b905082815260208101848484011115620003ca57620003c96200028e565b5b620003d78482856200035e565b509392505050565b600082601f830112620003f757620003f662000289565b5b81516200040984826020860162000394565b91505092915050565b6000819050919050565b620004278162000412565b81146200043357600080fd5b50565b60008151905062000447816200041c565b92915050565b600080600080608085870312156200046a57620004696200027f565b5b600085015167ffffffffffffffff8111156200048b576200048a62000284565b5b6200049987828801620003df565b945050602085015167ffffffffffffffff811115620004bd57620004bc62000284565b5b620004cb87828801620003df565b9350506040620004de8782880162000436565b9250506060620004f18782880162000436565b91505092959194509250565b7f4e487b7100000000000000000000000000000000000000000000000000000000600052602260045260246000fd5b600060028204905060018216806200054557607f821691505b602082108114156200055c576200055b620004fd565b5b50919050565b6138e280620005726000396000f3fe6080604052600436106101e35760003560e01c806395d89b4111610102578063cb774d4711610095578063e36d649811610064578063e36d64981461067e578063e985e9c5146106a9578063f2fde38b146106e6578063f74f9bfd1461070f576101e3565b8063cb774d47146105e6578063d07f47c314610611578063d547cfb71461063c578063daaeec8614610667576101e3565b8063b5077f44116100d1578063b5077f441461052a578063b88d4fde14610555578063c70299641461057e578063c87b56dd146105a9576101e3565b806395d89b4114610480578063a165b160146104ab578063a22cb465146104d6578063a38bffda146104ff576101e3565b80633ccfd60b1161017a5780636c0360eb116101495780636c0360eb146103d657806370a0823114610401578063715018a61461043e5780638da5cb5b14610455576101e3565b80633ccfd60b1461033d57806342842e0e1461034757806355f804b3146103705780636352211e14610399576101e3565b8063095ea7b3116101b6578063095ea7b3146102b65780632004ffd9146102df57806323b872dd146102e957806330cbc14514610312576101e3565b8063018a2c37146101e857806301ffc9a71461021157806306fdde031461024e578063081812fc14610279575b600080fd5b3480156101f457600080fd5b5061020f600480360381019061020a919061240b565b61073a565b005b34801561021d57600080fd5b5061023860048036038101906102339190612490565b6107c0565b60405161024591906124d8565b60405180910390f35b34801561025a57600080fd5b506102636108a2565b604051610270919061258c565b60405180910390f35b34801561028557600080fd5b506102a0600480360381019061029b919061240b565b610934565b6040516102ad91906125ef565b60405180910390f35b3480156102c257600080fd5b506102dd60048036038101906102d89190612636565b6109b9565b005b6102e7610ad1565b005b3480156102f557600080fd5b50610310600480360381019061030b9190612676565b610c10565b005b34801561031e57600080fd5b50610327610c70565b60405161033491906126d8565b60405180910390f35b610345610c7a565b005b34801561035357600080fd5b5061036e60048036038101906103699190612676565b610dc7565b005b34801561037c57600080fd5b5061039760048036038101906103929190612828565b610de7565b005b3480156103a557600080fd5b506103c060048036038101906103bb919061240b565b610e7d565b6040516103cd91906125ef565b60405180910390f35b3480156103e257600080fd5b506103eb610f2f565b6040516103f8919061258c565b60405180910390f35b34801561040d57600080fd5b5061042860048036038101906104239190612871565b610fbd565b60405161043591906126d8565b60405180910390f35b34801561044a57600080fd5b50610453611075565b005b34801561046157600080fd5b5061046a6110fd565b60405161047791906125ef565b60405180910390f35b34801561048c57600080fd5b50610495611127565b6040516104a2919061258c565b60405180910390f35b3480156104b757600080fd5b506104c06111b9565b6040516104cd91906126d8565b60405180910390f35b3480156104e257600080fd5b506104fd60048036038101906104f891906128ca565b6111c3565b005b34801561050b57600080fd5b506105146111d9565b60405161052191906126d8565b60405180910390f35b34801561053657600080fd5b5061053f6111e4565b60405161054c91906126d8565b60405180910390f35b34801561056157600080fd5b5061057c600480360381019061057791906129ab565b6111ea565b005b34801561058a57600080fd5b5061059361124c565b6040516105a091906124d8565b60405180910390f35b3480156105b557600080fd5b506105d060048036038101906105cb919061240b565b61125f565b6040516105dd919061258c565b60405180910390f35b3480156105f257600080fd5b506105fb611306565b60405161060891906126d8565b60405180910390f35b34801561061d57600080fd5b5061062661130c565b60405161063391906126d8565b60405180910390f35b34801561064857600080fd5b50610651611312565b60405161065e919061258c565b60405180910390f35b34801561067357600080fd5b5061067c6113a4565b005b34801561068a57600080fd5b5061069361144c565b6040516106a091906126d8565b60405180910390f35b3480156106b557600080fd5b506106d060048036038101906106cb9190612a2e565b611452565b6040516106dd91906124d8565b60405180910390f35b3480156106f257600080fd5b5061070d60048036038101906107089190612871565b6114e6565b005b34801561071b57600080fd5b506107246115de565b60405161073191906126d8565b60405180910390f35b6107426115e4565b73ffffffffffffffffffffffffffffffffffffffff166107606110fd565b73ffffffffffffffffffffffffffffffffffffffff16146107b6576040517f08c379a00000000000000000000000000000000000000000000000000000000081526004016107ad90612aba565b60405180910390fd5b8060088190555050565b60007f80ac58cd000000000000000000000000000000000000000000000000000000007bffffffffffffffffffffffffffffffffffffffffffffffffffffffff1916827bffffffffffffffffffffffffffffffffffffffffffffffffffffffff1916148061088b57507f5b5e139f000000000000000000000000000000000000000000000000000000007bffffffffffffffffffffffffffffffffffffffffffffffffffffffff1916827bffffffffffffffffffffffffffffffffffffffffffffffffffffffff1916145b8061089b575061089a826115ec565b5b9050919050565b6060600080546108b190612b09565b80601f01602080910402602001604051908101604052809291908181526020018280546108dd90612b09565b801561092a5780601f106108ff5761010080835404028352916020019161092a565b820191906000526020600020905b81548152906001019060200180831161090d57829003601f168201915b5050505050905090565b600061093f82611656565b61097e576040517f08c379a000000000000000000000000000000000000000000000000000000000815260040161097590612bad565b60405180910390fd5b6004600083815260200190815260200160002060009054906101000a900473ffffffffffffffffffffffffffffffffffffffff169050919050565b60006109c482610e7d565b90508073ffffffffffffffffffffffffffffffffffffffff168373ffffffffffffffffffffffffffffffffffffffff161415610a35576040517f08c379a0000000000000000000000000000000000000000000000000000000008152600401610a2c90612c3f565b60405180910390fd5b8073ffffffffffffffffffffffffffffffffffffffff16610a546115e4565b73ffffffffffffffffffffffffffffffffffffffff161480610a835750610a8281610a7d6115e4565b611452565b5b610ac2576040517f08c379a0000000000000000000000000000000000000000000000000000000008152600401610ab990612cd1565b60405180910390fd5b610acc83836116c2565b505050565b600960009054906101000a900460ff16610b20576040517f08c379a0000000000000000000000000000000000000000000000000000000008152600401610b1790612d3d565b60405180910390fd5b3466b1a2bc2ec500001115610b6a576040517f08c379a0000000000000000000000000000000000000000000000000000000008152600401610b6190612da9565b60405180910390fd5b600754600b541115610bb1576040517f08c379a0000000000000000000000000000000000000000000000000000000008152600401610ba890612e15565b60405180910390fd5b610bbd33600b5461177b565b7fadef11a3979b8ceb0573eb6ef0678134a09c23a0d94e5ea47cd18ac3a9fc0194600b54604051610bee9190612e81565b60405180910390a1600b6000815480929190610c0990612ede565b9190505550565b610c21610c1b6115e4565b82611799565b610c60576040517f08c379a0000000000000000000000000000000000000000000000000000000008152600401610c5790612f99565b60405180910390fd5b610c6b838383611877565b505050565b6000600b54905090565b610c826115e4565b73ffffffffffffffffffffffffffffffffffffffff16610ca06110fd565b73ffffffffffffffffffffffffffffffffffffffff1614610cf6576040517f08c379a0000000000000000000000000000000000000000000000000000000008152600401610ced90612aba565b60405180910390fd5b3373ffffffffffffffffffffffffffffffffffffffff16610d156110fd565b73ffffffffffffffffffffffffffffffffffffffff1614610d6b576040517f08c379a0000000000000000000000000000000000000000000000000000000008152600401610d629061302b565b60405180910390fd5b6000610d756110fd565b905060004790508173ffffffffffffffffffffffffffffffffffffffff166108fc829081150290604051600060405180830381858888f19350505050158015610dc2573d6000803e3d6000fd5b505050565b610de2838383604051806020016040528060008152506111ea565b505050565b610def6115e4565b73ffffffffffffffffffffffffffffffffffffffff16610e0d6110fd565b73ffffffffffffffffffffffffffffffffffffffff1614610e63576040517f08c379a0000000000000000000000000000000000000000000000000000000008152600401610e5a90612aba565b60405180910390fd5b80600a9080519060200190610e7992919061231e565b5050565b6000806002600084815260200190815260200160002060009054906101000a900473ffffffffffffffffffffffffffffffffffffffff169050600073ffffffffffffffffffffffffffffffffffffffff168173ffffffffffffffffffffffffffffffffffffffff161415610f26576040517f08c379a0000000000000000000000000000000000000000000000000000000008152600401610f1d906130bd565b60405180910390fd5b80915050919050565b600a8054610f3c90612b09565b80601f0160208091040260200160405190810160405280929190818152602001828054610f6890612b09565b8015610fb55780601f10610f8a57610100808354040283529160200191610fb5565b820191906000526020600020905b815481529060010190602001808311610f9857829003601f168201915b505050505081565b60008073ffffffffffffffffffffffffffffffffffffffff168273ffffffffffffffffffffffffffffffffffffffff16141561102e576040517f08c379a00000000000000000000000000000000000000000000000000000000081526004016110259061314f565b60405180910390fd5b600360008373ffffffffffffffffffffffffffffffffffffffff1673ffffffffffffffffffffffffffffffffffffffff168152602001908152602001600020549050919050565b61107d6115e4565b73ffffffffffffffffffffffffffffffffffffffff1661109b6110fd565b73ffffffffffffffffffffffffffffffffffffffff16146110f1576040517f08c379a00000000000000000000000000000000000000000000000000000000081526004016110e890612aba565b60405180910390fd5b6110fb6000611ad3565b565b6000600660009054906101000a900473ffffffffffffffffffffffffffffffffffffffff16905090565b60606001805461113690612b09565b80601f016020809104026020016040519081016040528092919081815260200182805461116290612b09565b80156111af5780601f10611184576101008083540402835291602001916111af565b820191906000526020600020905b81548152906001019060200180831161119257829003601f168201915b5050505050905090565b6000600754905090565b6111d56111ce6115e4565b8383611b99565b5050565b66b1a2bc2ec5000081565b60075481565b6111fb6111f56115e4565b83611799565b61123a576040517f08c379a000000000000000000000000000000000000000000000000000000000815260040161123190612f99565b60405180910390fd5b61124684848484611d06565b50505050565b600960009054906101000a900460ff1681565b606061126a82611656565b6112a9576040517f08c379a00000000000000000000000000000000000000000000000000000000081526004016112a0906131e1565b60405180910390fd5b60006112b3611d62565b905060008151116112d357604051806020016040528060008152506112fe565b806112dd84611df4565b6040516020016112ee92919061323d565b6040516020818303038152906040525b915050919050565b600d5481565b60085481565b6060600a805461132190612b09565b80601f016020809104026020016040519081016040528092919081815260200182805461134d90612b09565b801561139a5780601f1061136f5761010080835404028352916020019161139a565b820191906000526020600020905b81548152906001019060200180831161137d57829003601f168201915b5050505050905090565b6113ac6115e4565b73ffffffffffffffffffffffffffffffffffffffff166113ca6110fd565b73ffffffffffffffffffffffffffffffffffffffff1614611420576040517f08c379a000000000000000000000000000000000000000000000000000000000815260040161141790612aba565b60405180910390fd5b600960009054906101000a900460ff1615600960006101000a81548160ff021916908315150217905550565b600c5481565b6000600560008473ffffffffffffffffffffffffffffffffffffffff1673ffffffffffffffffffffffffffffffffffffffff16815260200190815260200160002060008373ffffffffffffffffffffffffffffffffffffffff1673ffffffffffffffffffffffffffffffffffffffff16815260200190815260200160002060009054906101000a900460ff16905092915050565b6114ee6115e4565b73ffffffffffffffffffffffffffffffffffffffff1661150c6110fd565b73ffffffffffffffffffffffffffffffffffffffff1614611562576040517f08c379a000000000000000000000000000000000000000000000000000000000815260040161155990612aba565b60405180910390fd5b600073ffffffffffffffffffffffffffffffffffffffff168173ffffffffffffffffffffffffffffffffffffffff1614156115d2576040517f08c379a00000000000000000000000000000000000000000000000000000000081526004016115c9906132d3565b60405180910390fd5b6115db81611ad3565b50565b600b5481565b600033905090565b60007f01ffc9a7000000000000000000000000000000000000000000000000000000007bffffffffffffffffffffffffffffffffffffffffffffffffffffffff1916827bffffffffffffffffffffffffffffffffffffffffffffffffffffffff1916149050919050565b60008073ffffffffffffffffffffffffffffffffffffffff166002600084815260200190815260200160002060009054906101000a900473ffffffffffffffffffffffffffffffffffffffff1673ffffffffffffffffffffffffffffffffffffffff1614159050919050565b816004600083815260200190815260200160002060006101000a81548173ffffffffffffffffffffffffffffffffffffffff021916908373ffffffffffffffffffffffffffffffffffffffff160217905550808273ffffffffffffffffffffffffffffffffffffffff1661173583610e7d565b73ffffffffffffffffffffffffffffffffffffffff167f8c5be1e5ebec7d5bd14f71427d1e84f3dd0314c0f7b2291e5b200ac8c7c3b92560405160405180910390a45050565b611795828260405180602001604052806000815250611f55565b5050565b60006117a482611656565b6117e3576040517f08c379a00000000000000000000000000000000000000000000000000000000081526004016117da90613365565b60405180910390fd5b60006117ee83610e7d565b90508073ffffffffffffffffffffffffffffffffffffffff168473ffffffffffffffffffffffffffffffffffffffff16148061185d57508373ffffffffffffffffffffffffffffffffffffffff1661184584610934565b73ffffffffffffffffffffffffffffffffffffffff16145b8061186e575061186d8185611452565b5b91505092915050565b8273ffffffffffffffffffffffffffffffffffffffff1661189782610e7d565b73ffffffffffffffffffffffffffffffffffffffff16146118ed576040517f08c379a00000000000000000000000000000000000000000000000000000000081526004016118e4906133f7565b60405180910390fd5b600073ffffffffffffffffffffffffffffffffffffffff168273ffffffffffffffffffffffffffffffffffffffff16141561195d576040517f08c379a000000000000000000000000000000000000000000000000000000000815260040161195490613489565b60405180910390fd5b611968838383611fb0565b6119736000826116c2565b6001600360008573ffffffffffffffffffffffffffffffffffffffff1673ffffffffffffffffffffffffffffffffffffffff16815260200190815260200160002060008282546119c391906134a9565b925050819055506001600360008473ffffffffffffffffffffffffffffffffffffffff1673ffffffffffffffffffffffffffffffffffffffff1681526020019081526020016000206000828254611a1a91906134dd565b92505081905550816002600083815260200190815260200160002060006101000a81548173ffffffffffffffffffffffffffffffffffffffff021916908373ffffffffffffffffffffffffffffffffffffffff160217905550808273ffffffffffffffffffffffffffffffffffffffff168473ffffffffffffffffffffffffffffffffffffffff167fddf252ad1be2c89b69c2b068fc378daa952ba7f163c4a11628f55a4df523b3ef60405160405180910390a4505050565b6000600660009054906101000a900473ffffffffffffffffffffffffffffffffffffffff16905081600660006101000a81548173ffffffffffffffffffffffffffffffffffffffff021916908373ffffffffffffffffffffffffffffffffffffffff1602179055508173ffffffffffffffffffffffffffffffffffffffff168173ffffffffffffffffffffffffffffffffffffffff167f8be0079c531659141344cd1fd0a4f28419497f9722a3daafe3b4186f6b6457e060405160405180910390a35050565b8173ffffffffffffffffffffffffffffffffffffffff168373ffffffffffffffffffffffffffffffffffffffff161415611c08576040517f08c379a0000000000000000000000000000000000000000000000000000000008152600401611bff9061357f565b60405180910390fd5b80600560008573ffffffffffffffffffffffffffffffffffffffff1673ffffffffffffffffffffffffffffffffffffffff16815260200190815260200160002060008473ffffffffffffffffffffffffffffffffffffffff1673ffffffffffffffffffffffffffffffffffffffff16815260200190815260200160002060006101000a81548160ff0219169083151502179055508173ffffffffffffffffffffffffffffffffffffffff168373ffffffffffffffffffffffffffffffffffffffff167f17307eab39ab6107e8899845ad3d59bd9653f200f220920489ca2b5937696c3183604051611cf991906124d8565b60405180910390a3505050565b611d11848484611877565b611d1d84848484611fb5565b611d5c576040517f08c379a0000000000000000000000000000000000000000000000000000000008152600401611d5390613611565b60405180910390fd5b50505050565b6060600a8054611d7190612b09565b80601f0160208091040260200160405190810160405280929190818152602001828054611d9d90612b09565b8015611dea5780601f10611dbf57610100808354040283529160200191611dea565b820191906000526020600020905b815481529060010190602001808311611dcd57829003601f168201915b5050505050905090565b60606000821415611e3c576040518060400160405280600181526020017f30000000000000000000000000000000000000000000000000000000000000008152509050611f50565b600082905060005b60008214611e6e578080611e5790612ede565b915050600a82611e679190613660565b9150611e44565b60008167ffffffffffffffff811115611e8a57611e896126fd565b5b6040519080825280601f01601f191660200182016040528015611ebc5781602001600182028036833780820191505090505b5090505b60008514611f4957600182611ed591906134a9565b9150600a85611ee49190613691565b6030611ef091906134dd565b60f81b818381518110611f0657611f056136c2565b5b60200101907effffffffffffffffffffffffffffffffffffffffffffffffffffffffffffff1916908160001a905350600a85611f429190613660565b9450611ec0565b8093505050505b919050565b611f5f838361213d565b611f6c6000848484611fb5565b611fab576040517f08c379a0000000000000000000000000000000000000000000000000000000008152600401611fa290613611565b60405180910390fd5b505050565b505050565b6000611fd68473ffffffffffffffffffffffffffffffffffffffff1661230b565b15612130578373ffffffffffffffffffffffffffffffffffffffff1663150b7a02611fff6115e4565b8786866040518563ffffffff1660e01b81526004016120219493929190613746565b6020604051808303816000875af192505050801561205d57506040513d601f19601f8201168201806040525081019061205a91906137a7565b60015b6120e0573d806000811461208d576040519150601f19603f3d011682016040523d82523d6000602084013e612092565b606091505b506000815114156120d8576040517f08c379a00000000000000000000000000000000000000000000000000000000081526004016120cf90613611565b60405180910390fd5b805181602001fd5b63150b7a0260e01b7bffffffffffffffffffffffffffffffffffffffffffffffffffffffff1916817bffffffffffffffffffffffffffffffffffffffffffffffffffffffff191614915050612135565b600190505b949350505050565b600073ffffffffffffffffffffffffffffffffffffffff168273ffffffffffffffffffffffffffffffffffffffff1614156121ad576040517f08c379a00000000000000000000000000000000000000000000000000000000081526004016121a490613820565b60405180910390fd5b6121b681611656565b156121f6576040517f08c379a00000000000000000000000000000000000000000000000000000000081526004016121ed9061388c565b60405180910390fd5b61220260008383611fb0565b6001600360008473ffffffffffffffffffffffffffffffffffffffff1673ffffffffffffffffffffffffffffffffffffffff168152602001908152602001600020600082825461225291906134dd565b92505081905550816002600083815260200190815260200160002060006101000a81548173ffffffffffffffffffffffffffffffffffffffff021916908373ffffffffffffffffffffffffffffffffffffffff160217905550808273ffffffffffffffffffffffffffffffffffffffff16600073ffffffffffffffffffffffffffffffffffffffff167fddf252ad1be2c89b69c2b068fc378daa952ba7f163c4a11628f55a4df523b3ef60405160405180910390a45050565b600080823b905060008111915050919050565b82805461232a90612b09565b90600052602060002090601f01602090048101928261234c5760008555612393565b82601f1061236557805160ff1916838001178555612393565b82800160010185558215612393579182015b82811115612392578251825591602001919060010190612377565b5b5090506123a091906123a4565b5090565b5b808211156123bd5760008160009055506001016123a5565b5090565b6000604051905090565b600080fd5b600080fd5b6000819050919050565b6123e8816123d5565b81146123f357600080fd5b50565b600081359050612405816123df565b92915050565b600060208284031215612421576124206123cb565b5b600061242f848285016123f6565b91505092915050565b60007fffffffff0000000000000000000000000000000000000000000000000000000082169050919050565b61246d81612438565b811461247857600080fd5b50565b60008135905061248a81612464565b92915050565b6000602082840312156124a6576124a56123cb565b5b60006124b48482850161247b565b91505092915050565b60008115159050919050565b6124d2816124bd565b82525050565b60006020820190506124ed60008301846124c9565b92915050565b600081519050919050565b600082825260208201905092915050565b60005b8381101561252d578082015181840152602081019050612512565b8381111561253c576000848401525b50505050565b6000601f19601f8301169050919050565b600061255e826124f3565b61256881856124fe565b935061257881856020860161250f565b61258181612542565b840191505092915050565b600060208201905081810360008301526125a68184612553565b905092915050565b600073ffffffffffffffffffffffffffffffffffffffff82169050919050565b60006125d9826125ae565b9050919050565b6125e9816125ce565b82525050565b600060208201905061260460008301846125e0565b92915050565b612613816125ce565b811461261e57600080fd5b50565b6000813590506126308161260a565b92915050565b6000806040838503121561264d5761264c6123cb565b5b600061265b85828601612621565b925050602061266c858286016123f6565b9150509250929050565b60008060006060848603121561268f5761268e6123cb565b5b600061269d86828701612621565b93505060206126ae86828701612621565b92505060406126bf868287016123f6565b9150509250925092565b6126d2816123d5565b82525050565b60006020820190506126ed60008301846126c9565b92915050565b600080fd5b600080fd5b7f4e487b7100000000000000000000000000000000000000000000000000000000600052604160045260246000fd5b61273582612542565b810181811067ffffffffffffffff82111715612754576127536126fd565b5b80604052505050565b60006127676123c1565b9050612773828261272c565b919050565b600067ffffffffffffffff821115612793576127926126fd565b5b61279c82612542565b9050602081019050919050565b82818337600083830152505050565b60006127cb6127c684612778565b61275d565b9050828152602081018484840111156127e7576127e66126f8565b5b6127f28482856127a9565b509392505050565b600082601f83011261280f5761280e6126f3565b5b813561281f8482602086016127b8565b91505092915050565b60006020828403121561283e5761283d6123cb565b5b600082013567ffffffffffffffff81111561285c5761285b6123d0565b5b612868848285016127fa565b91505092915050565b600060208284031215612887576128866123cb565b5b600061289584828501612621565b91505092915050565b6128a7816124bd565b81146128b257600080fd5b50565b6000813590506128c48161289e565b92915050565b600080604083850312156128e1576128e06123cb565b5b60006128ef85828601612621565b9250506020612900858286016128b5565b9150509250929050565b600067ffffffffffffffff821115612925576129246126fd565b5b61292e82612542565b9050602081019050919050565b600061294e6129498461290a565b61275d565b90508281526020810184848401111561296a576129696126f8565b5b6129758482856127a9565b509392505050565b600082601f830112612992576129916126f3565b5b81356129a284826020860161293b565b91505092915050565b600080600080608085870312156129c5576129c46123cb565b5b60006129d387828801612621565b94505060206129e487828801612621565b93505060406129f5878288016123f6565b925050606085013567ffffffffffffffff811115612a1657612a156123d0565b5b612a228782880161297d565b91505092959194509250565b60008060408385031215612a4557612a446123cb565b5b6000612a5385828601612621565b9250506020612a6485828601612621565b9150509250929050565b7f4f776e61626c653a2063616c6c6572206973206e6f7420746865206f776e6572600082015250565b6000612aa46020836124fe565b9150612aaf82612a6e565b602082019050919050565b60006020820190508181036000830152612ad381612a97565b9050919050565b7f4e487b7100000000000000000000000000000000000000000000000000000000600052602260045260246000fd5b60006002820490506001821680612b2157607f821691505b60208210811415612b3557612b34612ada565b5b50919050565b7f4552433732313a20617070726f76656420717565727920666f72206e6f6e657860008201527f697374656e7420746f6b656e0000000000000000000000000000000000000000602082015250565b6000612b97602c836124fe565b9150612ba282612b3b565b604082019050919050565b60006020820190508181036000830152612bc681612b8a565b9050919050565b7f4552433732313a20617070726f76616c20746f2063757272656e74206f776e6560008201527f7200000000000000000000000000000000000000000000000000000000000000602082015250565b6000612c296021836124fe565b9150612c3482612bcd565b604082019050919050565b60006020820190508181036000830152612c5881612c1c565b9050919050565b7f4552433732313a20617070726f76652063616c6c6572206973206e6f74206f7760008201527f6e6572206e6f7220617070726f76656420666f7220616c6c0000000000000000602082015250565b6000612cbb6038836124fe565b9150612cc682612c5f565b604082019050919050565b60006020820190508181036000830152612cea81612cae565b9050919050565b7f53616c657320686173206e6f7420737461727465642079657400000000000000600082015250565b6000612d276019836124fe565b9150612d3282612cf1565b602082019050919050565b60006020820190508181036000830152612d5681612d1a565b9050919050565b7f45746865722076616c75652073656e74206973206e6f7420636f727265637400600082015250565b6000612d93601f836124fe565b9150612d9e82612d5d565b602082019050919050565b60006020820190508181036000830152612dc281612d86565b9050919050565b7f416c6c204e465427732061726520736f6c64206f757400000000000000000000600082015250565b6000612dff6016836124fe565b9150612e0a82612dc9565b602082019050919050565b60006020820190508181036000830152612e2e81612df2565b9050919050565b7f4d696e74696e672066696e697368656400000000000000000000000000000000600082015250565b6000612e6b6010836124fe565b9150612e7682612e35565b602082019050919050565b6000604082019050612e9660008301846126c9565b8181036020830152612ea781612e5e565b905092915050565b7f4e487b7100000000000000000000000000000000000000000000000000000000600052601160045260246000fd5b6000612ee9826123d5565b91507fffffffffffffffffffffffffffffffffffffffffffffffffffffffffffffffff821415612f1c57612f1b612eaf565b5b600182019050919050565b7f4552433732313a207472616e736665722063616c6c6572206973206e6f74206f60008201527f776e6572206e6f7220617070726f766564000000000000000000000000000000602082015250565b6000612f836031836124fe565b9150612f8e82612f27565b604082019050919050565b60006020820190508181036000830152612fb281612f76565b9050919050565b7f596f75206e65656420746f20626520746865206f776e657220746f2072756e2060008201527f74686973206d6574686f64000000000000000000000000000000000000000000602082015250565b6000613015602b836124fe565b915061302082612fb9565b604082019050919050565b6000602082019050818103600083015261304481613008565b9050919050565b7f4552433732313a206f776e657220717565727920666f72206e6f6e657869737460008201527f656e7420746f6b656e0000000000000000000000000000000000000000000000602082015250565b60006130a76029836124fe565b91506130b28261304b565b604082019050919050565b600060208201905081810360008301526130d68161309a565b9050919050565b7f4552433732313a2062616c616e636520717565727920666f7220746865207a6560008201527f726f206164647265737300000000000000000000000000000000000000000000602082015250565b6000613139602a836124fe565b9150613144826130dd565b604082019050919050565b600060208201905081810360008301526131688161312c565b9050919050565b7f4552433732314d657461646174613a2055524920717565727920666f72206e6f60008201527f6e6578697374656e7420746f6b656e0000000000000000000000000000000000602082015250565b60006131cb602f836124fe565b91506131d68261316f565b604082019050919050565b600060208201905081810360008301526131fa816131be565b9050919050565b600081905092915050565b6000613217826124f3565b6132218185613201565b935061323181856020860161250f565b80840191505092915050565b6000613249828561320c565b9150613255828461320c565b91508190509392505050565b7f4f776e61626c653a206e6577206f776e657220697320746865207a65726f206160008201527f6464726573730000000000000000000000000000000000000000000000000000602082015250565b60006132bd6026836124fe565b91506132c882613261565b604082019050919050565b600060208201905081810360008301526132ec816132b0565b9050919050565b7f4552433732313a206f70657261746f7220717565727920666f72206e6f6e657860008201527f697374656e7420746f6b656e0000000000000000000000000000000000000000602082015250565b600061334f602c836124fe565b915061335a826132f3565b604082019050919050565b6000602082019050818103600083015261337e81613342565b9050919050565b7f4552433732313a207472616e73666572206f6620746f6b656e2074686174206960008201527f73206e6f74206f776e0000000000000000000000000000000000000000000000602082015250565b60006133e16029836124fe565b91506133ec82613385565b604082019050919050565b60006020820190508181036000830152613410816133d4565b9050919050565b7f4552433732313a207472616e7366657220746f20746865207a65726f2061646460008201527f7265737300000000000000000000000000000000000000000000000000000000602082015250565b60006134736024836124fe565b915061347e82613417565b604082019050919050565b600060208201905081810360008301526134a281613466565b9050919050565b60006134b4826123d5565b91506134bf836123d5565b9250828210156134d2576134d1612eaf565b5b828203905092915050565b60006134e8826123d5565b91506134f3836123d5565b9250827fffffffffffffffffffffffffffffffffffffffffffffffffffffffffffffffff0382111561352857613527612eaf565b5b828201905092915050565b7f4552433732313a20617070726f766520746f2063616c6c657200000000000000600082015250565b60006135696019836124fe565b915061357482613533565b602082019050919050565b600060208201905081810360008301526135988161355c565b9050919050565b7f4552433732313a207472616e7366657220746f206e6f6e20455243373231526560008201527f63656976657220696d706c656d656e7465720000000000000000000000000000602082015250565b60006135fb6032836124fe565b91506136068261359f565b604082019050919050565b6000602082019050818103600083015261362a816135ee565b9050919050565b7f4e487b7100000000000000000000000000000000000000000000000000000000600052601260045260246000fd5b600061366b826123d5565b9150613676836123d5565b92508261368657613685613631565b5b828204905092915050565b600061369c826123d5565b91506136a7836123d5565b9250826136b7576136b6613631565b5b828206905092915050565b7f4e487b7100000000000000000000000000000000000000000000000000000000600052603260045260246000fd5b600081519050919050565b600082825260208201905092915050565b6000613718826136f1565b61372281856136fc565b935061373281856020860161250f565b61373b81612542565b840191505092915050565b600060808201905061375b60008301876125e0565b61376860208301866125e0565b61377560408301856126c9565b8181036060830152613787818461370d565b905095945050505050565b6000815190506137a181612464565b92915050565b6000602082840312156137bd576137bc6123cb565b5b60006137cb84828501613792565b91505092915050565b7f4552433732313a206d696e7420746f20746865207a65726f2061646472657373600082015250565b600061380a6020836124fe565b9150613815826137d4565b602082019050919050565b60006020820190508181036000830152613839816137fd565b9050919050565b7f4552433732313a20746f6b656e20616c7265616479206d696e74656400000000600082015250565b6000613876601c836124fe565b915061388182613840565b602082019050919050565b600060208201905081810360008301526138a581613869565b905091905056fea2646970667358221220541f8e04da5bbf34aa3a5769016635f85f77466b08c86b33f012c179f06590a864736f6c634300080b0033697066733a2f2f516d55766374556d656d675a6731695068437366436f656a70346767656963786553465076774c75694e4a523465",
    "immutableReferences": {},
    "source": "// SPDX-License-Identifier: MIT\n\npragma solidity >=0.4.22 <0.9.0;\n\nimport \"@openzeppelin/contracts/token/ERC721/ERC721.sol\";\n// import \"@openzeppelin/contracts/token/ERC721/extensions/ERC721Enumerable.sol\";\nimport \"@openzeppelin/contracts/access/Ownable.sol\";\nimport \"@openzeppelin/contracts/utils/math/SafeMath.sol\";\n\ncontract DazedDucks is ERC721, Ownable {\n    using SafeMath for uint256;\n\n    uint256 public MAX_NFT_SUPPLY;\n    uint256 public MINT_TIMESTAMP;\n    bool public saleHasStarted = true;\n    string public baseURI = 'ipfs://QmUvctUmemgZg1iPhCsfCoejp4ggeicxeSFPvwLuiNJR4e';\n    uint256 public mintIndex = 1;\n    uint256 public constant NFTPrice = 50000000000000000; // 0.05 ETH\n    uint256 public startingIndexBlock;\n    uint256 public startingIndex;\n\n    constructor(string memory name, string memory symbol, uint256 maxNFTSupply, uint256 mintTimeStamp) ERC721(name, symbol)\n    {\n        MAX_NFT_SUPPLY = maxNFTSupply;\n        MINT_TIMESTAMP = mintTimeStamp;\n    }\n\n    event Minted (\n        uint256 id,\n        string message \n    );\n\n    function mintToken() public payable {\n        require(saleHasStarted, \"Sales has not started yet\");\n        require(NFTPrice <= msg.value, \"Ether value sent is not correct\");\n        require(mintIndex <= MAX_NFT_SUPPLY, \"All NFT's are sold out\");\n\n        _safeMint(msg.sender, mintIndex);\n\n        emit Minted(mintIndex, 'Minting finished');\n        mintIndex++;\n    }\n\n    function _baseURI() internal override view returns (string memory) {\n        return baseURI;\n    }\n\n    function setBaseURI(string memory newBaseURI) external onlyOwner {\n        baseURI = newBaseURI;\n    }\n\n    /**\n     * This method is used by OpenSea\n     */\n    function baseTokenURI() public view returns (string memory) {\n        return baseURI;\n    }\n\n    function withdraw() public payable onlyOwner {\n        require(owner() == msg.sender, \"You need to be the owner to run this method\");\n\n        address payable owner = payable(owner());\n\n        uint balance = address(this).balance;\n        owner.transfer(balance);\n    }\n\n    function setRevealTimestamp(uint256 mintTimeStamp) public onlyOwner {\n        MINT_TIMESTAMP = mintTimeStamp;\n    }\n\n    function toggleSaleState() public onlyOwner {\n        saleHasStarted = !saleHasStarted;\n    }\n\n    function getMintIndex() public view returns (uint256) {\n        return mintIndex;\n    }\n\n    function getMaxNFTSupply() public view returns (uint256) {\n        return MAX_NFT_SUPPLY;\n    }\n}",
    "sourcePath": "/Users/timnijssen/Sites/localhost/mintpad/resources/js/contracts/DazedDucks.sol",
    "compiler": {
        "name": "solc",
        "version": "0.8.11+commit.d7f03943.Emscripten.clang"
    },
    "schemaVersion": "3.4.4",
    "updatedAt": "2022-01-31T23:01:30.976Z",
    "networkType": "ethereum",
    "devdoc": {
        "kind": "dev",
        "methods": {
            "approve(address,uint256)": {
                "details": "See {IERC721-approve}."
            },
            "balanceOf(address)": {
                "details": "See {IERC721-balanceOf}."
            },
            "getApproved(uint256)": {
                "details": "See {IERC721-getApproved}."
            },
            "isApprovedForAll(address,address)": {
                "details": "See {IERC721-isApprovedForAll}."
            },
            "name()": {
                "details": "See {IERC721Metadata-name}."
            },
            "owner()": {
                "details": "Returns the address of the current owner."
            },
            "ownerOf(uint256)": {
                "details": "See {IERC721-ownerOf}."
            },
            "renounceOwnership()": {
                "details": "Leaves the contract without owner. It will not be possible to call `onlyOwner` functions anymore. Can only be called by the current owner. NOTE: Renouncing ownership will leave the contract without an owner, thereby removing any functionality that is only available to the owner."
            },
            "safeTransferFrom(address,address,uint256)": {
                "details": "See {IERC721-safeTransferFrom}."
            },
            "safeTransferFrom(address,address,uint256,bytes)": {
                "details": "See {IERC721-safeTransferFrom}."
            },
            "setApprovalForAll(address,bool)": {
                "details": "See {IERC721-setApprovalForAll}."
            },
            "supportsInterface(bytes4)": {
                "details": "See {IERC165-supportsInterface}."
            },
            "symbol()": {
                "details": "See {IERC721Metadata-symbol}."
            },
            "tokenURI(uint256)": {
                "details": "See {IERC721Metadata-tokenURI}."
            },
            "transferFrom(address,address,uint256)": {
                "details": "See {IERC721-transferFrom}."
            },
            "transferOwnership(address)": {
                "details": "Transfers ownership of the contract to a new account (`newOwner`). Can only be called by the current owner."
            }
        },
        "version": 1
    },
    "userdoc": {
        "kind": "user",
        "methods": {
            "baseTokenURI()": {
                "notice": "This method is used by OpenSea"
            }
        },
        "version": 1
    }
}